{
	"data": {
		"bytecode": {
			"linkReferences": {},
			"object": "60806040526014600055600560015534801561001a57600080fd5b5061037a8061002a6000396000f3fe608060405234801561001057600080fd5b506004361061004c5760003560e01c80634799e6d81461005157806367e068581461006f57806372b38ffc1461008d578063a4f7a630146100ab575b600080fd5b6100596100c9565b6040516100669190610162565b60405180910390f35b6100776100e9565b6040516100849190610162565b60405180910390f35b610095610109565b6040516100a29190610162565b60405180910390f35b6100b3610129565b6040516100c09190610162565b60405180910390f35b60006001546000546100db91906101ac565b600481905550600454905090565b60006001546000546100fb9190610224565b600281905550600254905090565b600060015460005461011b9190610297565b600581905550600554905090565b600060015460005461013b9190610301565b600381905550600354905090565b6000819050919050565b61015c81610149565b82525050565b60006020820190506101776000830184610153565b92915050565b7f4e487b7100000000000000000000000000000000000000000000000000000000600052601160045260246000fd5b60006101b782610149565b91506101c283610149565b92508282026101d081610149565b91507f800000000000000000000000000000000000000000000000000000000000000084146000841216156102085761020761017d565b5b828205841483151761021d5761021c61017d565b5b5092915050565b600061022f82610149565b915061023a83610149565b9250828201905082811215600083121683821260008412151617156102625761026161017d565b5b92915050565b7f4e487b7100000000000000000000000000000000000000000000000000000000600052601260045260246000fd5b60006102a282610149565b91506102ad83610149565b9250826102bd576102bc610268565b5b600160000383147f8000000000000000000000000000000000000000000000000000000000000000831416156102f6576102f561017d565b5b828205905092915050565b600061030c82610149565b915061031783610149565b925082820390508181126000841216828213600085121516171561033e5761033d61017d565b5b9291505056fea2646970667358221220474eded4c22525f6fe088f08a165a459b8afbe62103487ddf250453a6e8ec33c64736f6c63430008120033",
			"opcodes": "PUSH1 0x80 PUSH1 0x40 MSTORE PUSH1 0x14 PUSH1 0x0 SSTORE PUSH1 0x5 PUSH1 0x1 SSTORE CALLVALUE DUP1 ISZERO PUSH2 0x1A JUMPI PUSH1 0x0 DUP1 REVERT JUMPDEST POP PUSH2 0x37A DUP1 PUSH2 0x2A PUSH1 0x0 CODECOPY PUSH1 0x0 RETURN INVALID PUSH1 0x80 PUSH1 0x40 MSTORE CALLVALUE DUP1 ISZERO PUSH2 0x10 JUMPI PUSH1 0x0 DUP1 REVERT JUMPDEST POP PUSH1 0x4 CALLDATASIZE LT PUSH2 0x4C JUMPI PUSH1 0x0 CALLDATALOAD PUSH1 0xE0 SHR DUP1 PUSH4 0x4799E6D8 EQ PUSH2 0x51 JUMPI DUP1 PUSH4 0x67E06858 EQ PUSH2 0x6F JUMPI DUP1 PUSH4 0x72B38FFC EQ PUSH2 0x8D JUMPI DUP1 PUSH4 0xA4F7A630 EQ PUSH2 0xAB JUMPI JUMPDEST PUSH1 0x0 DUP1 REVERT JUMPDEST PUSH2 0x59 PUSH2 0xC9 JUMP JUMPDEST PUSH1 0x40 MLOAD PUSH2 0x66 SWAP2 SWAP1 PUSH2 0x162 JUMP JUMPDEST PUSH1 0x40 MLOAD DUP1 SWAP2 SUB SWAP1 RETURN JUMPDEST PUSH2 0x77 PUSH2 0xE9 JUMP JUMPDEST PUSH1 0x40 MLOAD PUSH2 0x84 SWAP2 SWAP1 PUSH2 0x162 JUMP JUMPDEST PUSH1 0x40 MLOAD DUP1 SWAP2 SUB SWAP1 RETURN JUMPDEST PUSH2 0x95 PUSH2 0x109 JUMP JUMPDEST PUSH1 0x40 MLOAD PUSH2 0xA2 SWAP2 SWAP1 PUSH2 0x162 JUMP JUMPDEST PUSH1 0x40 MLOAD DUP1 SWAP2 SUB SWAP1 RETURN JUMPDEST PUSH2 0xB3 PUSH2 0x129 JUMP JUMPDEST PUSH1 0x40 MLOAD PUSH2 0xC0 SWAP2 SWAP1 PUSH2 0x162 JUMP JUMPDEST PUSH1 0x40 MLOAD DUP1 SWAP2 SUB SWAP1 RETURN JUMPDEST PUSH1 0x0 PUSH1 0x1 SLOAD PUSH1 0x0 SLOAD PUSH2 0xDB SWAP2 SWAP1 PUSH2 0x1AC JUMP JUMPDEST PUSH1 0x4 DUP2 SWAP1 SSTORE POP PUSH1 0x4 SLOAD SWAP1 POP SWAP1 JUMP JUMPDEST PUSH1 0x0 PUSH1 0x1 SLOAD PUSH1 0x0 SLOAD PUSH2 0xFB SWAP2 SWAP1 PUSH2 0x224 JUMP JUMPDEST PUSH1 0x2 DUP2 SWAP1 SSTORE POP PUSH1 0x2 SLOAD SWAP1 POP SWAP1 JUMP JUMPDEST PUSH1 0x0 PUSH1 0x1 SLOAD PUSH1 0x0 SLOAD PUSH2 0x11B SWAP2 SWAP1 PUSH2 0x297 JUMP JUMPDEST PUSH1 0x5 DUP2 SWAP1 SSTORE POP PUSH1 0x5 SLOAD SWAP1 POP SWAP1 JUMP JUMPDEST PUSH1 0x0 PUSH1 0x1 SLOAD PUSH1 0x0 SLOAD PUSH2 0x13B SWAP2 SWAP1 PUSH2 0x301 JUMP JUMPDEST PUSH1 0x3 DUP2 SWAP1 SSTORE POP PUSH1 0x3 SLOAD SWAP1 POP SWAP1 JUMP JUMPDEST PUSH1 0x0 DUP2 SWAP1 POP SWAP2 SWAP1 POP JUMP JUMPDEST PUSH2 0x15C DUP2 PUSH2 0x149 JUMP JUMPDEST DUP3 MSTORE POP POP JUMP JUMPDEST PUSH1 0x0 PUSH1 0x20 DUP3 ADD SWAP1 POP PUSH2 0x177 PUSH1 0x0 DUP4 ADD DUP5 PUSH2 0x153 JUMP JUMPDEST SWAP3 SWAP2 POP POP JUMP JUMPDEST PUSH32 0x4E487B7100000000000000000000000000000000000000000000000000000000 PUSH1 0x0 MSTORE PUSH1 0x11 PUSH1 0x4 MSTORE PUSH1 0x24 PUSH1 0x0 REVERT JUMPDEST PUSH1 0x0 PUSH2 0x1B7 DUP3 PUSH2 0x149 JUMP JUMPDEST SWAP2 POP PUSH2 0x1C2 DUP4 PUSH2 0x149 JUMP JUMPDEST SWAP3 POP DUP3 DUP3 MUL PUSH2 0x1D0 DUP2 PUSH2 0x149 JUMP JUMPDEST SWAP2 POP PUSH32 0x8000000000000000000000000000000000000000000000000000000000000000 DUP5 EQ PUSH1 0x0 DUP5 SLT AND ISZERO PUSH2 0x208 JUMPI PUSH2 0x207 PUSH2 0x17D JUMP JUMPDEST JUMPDEST DUP3 DUP3 SDIV DUP5 EQ DUP4 ISZERO OR PUSH2 0x21D JUMPI PUSH2 0x21C PUSH2 0x17D JUMP JUMPDEST JUMPDEST POP SWAP3 SWAP2 POP POP JUMP JUMPDEST PUSH1 0x0 PUSH2 0x22F DUP3 PUSH2 0x149 JUMP JUMPDEST SWAP2 POP PUSH2 0x23A DUP4 PUSH2 0x149 JUMP JUMPDEST SWAP3 POP DUP3 DUP3 ADD SWAP1 POP DUP3 DUP2 SLT ISZERO PUSH1 0x0 DUP4 SLT AND DUP4 DUP3 SLT PUSH1 0x0 DUP5 SLT ISZERO AND OR ISZERO PUSH2 0x262 JUMPI PUSH2 0x261 PUSH2 0x17D JUMP JUMPDEST JUMPDEST SWAP3 SWAP2 POP POP JUMP JUMPDEST PUSH32 0x4E487B7100000000000000000000000000000000000000000000000000000000 PUSH1 0x0 MSTORE PUSH1 0x12 PUSH1 0x4 MSTORE PUSH1 0x24 PUSH1 0x0 REVERT JUMPDEST PUSH1 0x0 PUSH2 0x2A2 DUP3 PUSH2 0x149 JUMP JUMPDEST SWAP2 POP PUSH2 0x2AD DUP4 PUSH2 0x149 JUMP JUMPDEST SWAP3 POP DUP3 PUSH2 0x2BD JUMPI PUSH2 0x2BC PUSH2 0x268 JUMP JUMPDEST JUMPDEST PUSH1 0x1 PUSH1 0x0 SUB DUP4 EQ PUSH32 0x8000000000000000000000000000000000000000000000000000000000000000 DUP4 EQ AND ISZERO PUSH2 0x2F6 JUMPI PUSH2 0x2F5 PUSH2 0x17D JUMP JUMPDEST JUMPDEST DUP3 DUP3 SDIV SWAP1 POP SWAP3 SWAP2 POP POP JUMP JUMPDEST PUSH1 0x0 PUSH2 0x30C DUP3 PUSH2 0x149 JUMP JUMPDEST SWAP2 POP PUSH2 0x317 DUP4 PUSH2 0x149 JUMP JUMPDEST SWAP3 POP DUP3 DUP3 SUB SWAP1 POP DUP2 DUP2 SLT PUSH1 0x0 DUP5 SLT AND DUP3 DUP3 SGT PUSH1 0x0 DUP6 SLT ISZERO AND OR ISZERO PUSH2 0x33E JUMPI PUSH2 0x33D PUSH2 0x17D JUMP JUMPDEST JUMPDEST SWAP3 SWAP2 POP POP JUMP INVALID LOG2 PUSH5 0x6970667358 0x22 SLT KECCAK256 SELFBALANCE 0x4E 0xDE 0xD4 0xC2 0x25 0x25 0xF6 INVALID ADDMOD DUP16 ADDMOD LOG1 PUSH6 0xA459B8AFBE62 LT CALLVALUE DUP8 0xDD CALLCODE POP GASLIMIT GASPRICE PUSH15 0x8EC33C64736F6C6343000812003300 "
		},
		"gasEstimates": {
			"creation": {
				"codeDepositCost": "178000",
				"executionCost": "44432",
				"totalCost": "222432"
			},
			"external": {
				"Add()": "infinite",
				"Divide()": "infinite",
				"Multiply()": "infinite",
				"Subtract()": "infinite"
			}
		},
		"methodIdentifiers": {
			"Add()": "67e06858",
			"Divide()": "72b38ffc",
			"Multiply()": "4799e6d8",
			"Subtract()": "a4f7a630"
		}
	},
	"abi": [
		{
			"inputs": [],
			"name": "Add",
			"outputs": [
				{
					"internalType": "int256",
					"name": "",
					"type": "int256"
				}
			],
			"stateMutability": "nonpayable",
			"type": "function"
		},
		{
			"inputs": [],
			"name": "Divide",
			"outputs": [
				{
					"internalType": "int256",
					"name": "",
					"type": "int256"
				}
			],
			"stateMutability": "nonpayable",
			"type": "function"
		},
		{
			"inputs": [],
			"name": "Multiply",
			"outputs": [
				{
					"internalType": "int256",
					"name": "",
					"type": "int256"
				}
			],
			"stateMutability": "nonpayable",
			"type": "function"
		},
		{
			"inputs": [],
			"name": "Subtract",
			"outputs": [
				{
					"internalType": "int256",
					"name": "",
					"type": "int256"
				}
			],
			"stateMutability": "nonpayable",
			"type": "function"
		}
	]
}