{
	"Practicals/LargestofThree.sol": {
		"LargestofThree": {
			"abi": [
				{
					"inputs": [],
					"name": "LOT",
					"outputs": [
						{
							"internalType": "int256",
							"name": "",
							"type": "int256"
						}
					],
					"stateMutability": "view",
					"type": "function"
				}
			],
			"devdoc": {
				"kind": "dev",
				"methods": {},
				"version": 1
			},
			"evm": {
				"assembly": "    /* \"Practicals/LargestofThree.sol\":60:415  contract LargestofThree{... */\n  mstore(0x40, 0x80)\n    /* \"Practicals/LargestofThree.sol\":111:113  10 */\n  0x0a\n    /* \"Practicals/LargestofThree.sol\":92:113  int private num1 = 10 */\n  0x00\n  sstore\n    /* \"Practicals/LargestofThree.sol\":139:142  100 */\n  0x64\n    /* \"Practicals/LargestofThree.sol\":120:142  int private num2 = 100 */\n  0x01\n  sstore\n    /* \"Practicals/LargestofThree.sol\":168:169  1 */\n  0x01\n    /* \"Practicals/LargestofThree.sol\":149:169  int private num3 = 1 */\n  0x02\n  sstore\n    /* \"Practicals/LargestofThree.sol\":60:415  contract LargestofThree{... */\n  callvalue\n  dup1\n  iszero\n  tag_1\n  jumpi\n  0x00\n  dup1\n  revert\ntag_1:\n  pop\n  dataSize(sub_0)\n  dup1\n  dataOffset(sub_0)\n  0x00\n  codecopy\n  0x00\n  return\nstop\n\nsub_0: assembly {\n        /* \"Practicals/LargestofThree.sol\":60:415  contract LargestofThree{... */\n      mstore(0x40, 0x80)\n      callvalue\n      dup1\n      iszero\n      tag_1\n      jumpi\n      0x00\n      dup1\n      revert\n    tag_1:\n      pop\n      jumpi(tag_2, lt(calldatasize, 0x04))\n      shr(0xe0, calldataload(0x00))\n      dup1\n      0xd3284cda\n      eq\n      tag_3\n      jumpi\n    tag_2:\n      0x00\n      dup1\n      revert\n        /* \"Practicals/LargestofThree.sol\":178:412  function LOT() view public returns (int){... */\n    tag_3:\n      tag_4\n      tag_5\n      jump\t// in\n    tag_4:\n      mload(0x40)\n      tag_6\n      swap2\n      swap1\n      tag_7\n      jump\t// in\n    tag_6:\n      mload(0x40)\n      dup1\n      swap2\n      sub\n      swap1\n      return\n    tag_5:\n        /* \"Practicals/LargestofThree.sol\":214:217  int */\n      0x00\n        /* \"Practicals/LargestofThree.sol\":238:242  num2 */\n      sload(0x01)\n        /* \"Practicals/LargestofThree.sol\":233:237  num1 */\n      sload(0x00)\n        /* \"Practicals/LargestofThree.sol\":233:242  num1>num2 */\n      sgt\n        /* \"Practicals/LargestofThree.sol\":233:255  num1>num2 && num1>num3 */\n      dup1\n      iszero\n      tag_9\n      jumpi\n      pop\n        /* \"Practicals/LargestofThree.sol\":251:255  num3 */\n      sload(0x02)\n        /* \"Practicals/LargestofThree.sol\":246:250  num1 */\n      sload(0x00)\n        /* \"Practicals/LargestofThree.sol\":246:255  num1>num3 */\n      sgt\n        /* \"Practicals/LargestofThree.sol\":233:255  num1>num2 && num1>num3 */\n    tag_9:\n        /* \"Practicals/LargestofThree.sol\":229:405  if (num1>num2 && num1>num3){... */\n      iszero\n      tag_10\n      jumpi\n        /* \"Practicals/LargestofThree.sol\":278:282  num1 */\n      sload(0x00)\n        /* \"Practicals/LargestofThree.sol\":271:282  return num1 */\n      swap1\n      pop\n      jump(tag_8)\n        /* \"Practicals/LargestofThree.sol\":229:405  if (num1>num2 && num1>num3){... */\n    tag_10:\n        /* \"Practicals/LargestofThree.sol\":307:311  num1 */\n      sload(0x00)\n        /* \"Practicals/LargestofThree.sol\":302:306  num2 */\n      sload(0x01)\n        /* \"Practicals/LargestofThree.sol\":302:311  num2>num1 */\n      sgt\n        /* \"Practicals/LargestofThree.sol\":302:324  num2>num1 && num2>num3 */\n      dup1\n      iszero\n      tag_12\n      jumpi\n      pop\n        /* \"Practicals/LargestofThree.sol\":320:324  num3 */\n      sload(0x02)\n        /* \"Practicals/LargestofThree.sol\":315:319  num2 */\n      sload(0x01)\n        /* \"Practicals/LargestofThree.sol\":315:324  num2>num3 */\n      sgt\n        /* \"Practicals/LargestofThree.sol\":302:324  num2>num1 && num2>num3 */\n    tag_12:\n        /* \"Practicals/LargestofThree.sol\":299:405  if(num2>num1 && num2>num3){... */\n      iszero\n      tag_13\n      jumpi\n        /* \"Practicals/LargestofThree.sol\":347:351  num2 */\n      sload(0x01)\n        /* \"Practicals/LargestofThree.sol\":340:351  return num2 */\n      swap1\n      pop\n      jump(tag_8)\n        /* \"Practicals/LargestofThree.sol\":299:405  if(num2>num1 && num2>num3){... */\n    tag_13:\n        /* \"Practicals/LargestofThree.sol\":389:393  num3 */\n      sload(0x02)\n        /* \"Practicals/LargestofThree.sol\":382:393  return num3 */\n      swap1\n      pop\n        /* \"Practicals/LargestofThree.sol\":178:412  function LOT() view public returns (int){... */\n    tag_8:\n      swap1\n      jump\t// out\n        /* \"#utility.yul\":7:83   */\n    tag_15:\n        /* \"#utility.yul\":43:50   */\n      0x00\n        /* \"#utility.yul\":72:77   */\n      dup2\n        /* \"#utility.yul\":61:77   */\n      swap1\n      pop\n        /* \"#utility.yul\":7:83   */\n      swap2\n      swap1\n      pop\n      jump\t// out\n        /* \"#utility.yul\":89:204   */\n    tag_16:\n        /* \"#utility.yul\":174:197   */\n      tag_20\n        /* \"#utility.yul\":191:196   */\n      dup2\n        /* \"#utility.yul\":174:197   */\n      tag_15\n      jump\t// in\n    tag_20:\n        /* \"#utility.yul\":169:172   */\n      dup3\n        /* \"#utility.yul\":162:198   */\n      mstore\n        /* \"#utility.yul\":89:204   */\n      pop\n      pop\n      jump\t// out\n        /* \"#utility.yul\":210:428   */\n    tag_7:\n        /* \"#utility.yul\":301:305   */\n      0x00\n        /* \"#utility.yul\":339:341   */\n      0x20\n        /* \"#utility.yul\":328:337   */\n      dup3\n        /* \"#utility.yul\":324:342   */\n      add\n        /* \"#utility.yul\":316:342   */\n      swap1\n      pop\n        /* \"#utility.yul\":352:421   */\n      tag_22\n        /* \"#utility.yul\":418:419   */\n      0x00\n        /* \"#utility.yul\":407:416   */\n      dup4\n        /* \"#utility.yul\":403:420   */\n      add\n        /* \"#utility.yul\":394:400   */\n      dup5\n        /* \"#utility.yul\":352:421   */\n      tag_16\n      jump\t// in\n    tag_22:\n        /* \"#utility.yul\":210:428   */\n      swap3\n      swap2\n      pop\n      pop\n      jump\t// out\n\n    auxdata: 0xa2646970667358221220c37a860c065230acbdec167f62126ec63650009c6325cd42c074145f56ce0cae64736f6c63430008120033\n}\n",
				"bytecode": {
					"linkReferences": {},
					"object": "6080604052600a6000556064600155600160025534801561001f57600080fd5b5060fc8061002e6000396000f3fe6080604052348015600f57600080fd5b506004361060285760003560e01c8063d3284cda14602d575b600080fd5b60336047565b604051603e919060ad565b60405180910390f35b6000600154600054138015605e5750600254600054135b15606b5760005490506093565b60005460015413801560805750600254600154135b15608d5760015490506093565b60025490505b90565b6000819050919050565b60a7816096565b82525050565b600060208201905060c0600083018460a0565b9291505056fea2646970667358221220c37a860c065230acbdec167f62126ec63650009c6325cd42c074145f56ce0cae64736f6c63430008120033",
					"opcodes": "PUSH1 0x80 PUSH1 0x40 MSTORE PUSH1 0xA PUSH1 0x0 SSTORE PUSH1 0x64 PUSH1 0x1 SSTORE PUSH1 0x1 PUSH1 0x2 SSTORE CALLVALUE DUP1 ISZERO PUSH2 0x1F JUMPI PUSH1 0x0 DUP1 REVERT JUMPDEST POP PUSH1 0xFC DUP1 PUSH2 0x2E PUSH1 0x0 CODECOPY PUSH1 0x0 RETURN INVALID PUSH1 0x80 PUSH1 0x40 MSTORE CALLVALUE DUP1 ISZERO PUSH1 0xF JUMPI PUSH1 0x0 DUP1 REVERT JUMPDEST POP PUSH1 0x4 CALLDATASIZE LT PUSH1 0x28 JUMPI PUSH1 0x0 CALLDATALOAD PUSH1 0xE0 SHR DUP1 PUSH4 0xD3284CDA EQ PUSH1 0x2D JUMPI JUMPDEST PUSH1 0x0 DUP1 REVERT JUMPDEST PUSH1 0x33 PUSH1 0x47 JUMP JUMPDEST PUSH1 0x40 MLOAD PUSH1 0x3E SWAP2 SWAP1 PUSH1 0xAD JUMP JUMPDEST PUSH1 0x40 MLOAD DUP1 SWAP2 SUB SWAP1 RETURN JUMPDEST PUSH1 0x0 PUSH1 0x1 SLOAD PUSH1 0x0 SLOAD SGT DUP1 ISZERO PUSH1 0x5E JUMPI POP PUSH1 0x2 SLOAD PUSH1 0x0 SLOAD SGT JUMPDEST ISZERO PUSH1 0x6B JUMPI PUSH1 0x0 SLOAD SWAP1 POP PUSH1 0x93 JUMP JUMPDEST PUSH1 0x0 SLOAD PUSH1 0x1 SLOAD SGT DUP1 ISZERO PUSH1 0x80 JUMPI POP PUSH1 0x2 SLOAD PUSH1 0x1 SLOAD SGT JUMPDEST ISZERO PUSH1 0x8D JUMPI PUSH1 0x1 SLOAD SWAP1 POP PUSH1 0x93 JUMP JUMPDEST PUSH1 0x2 SLOAD SWAP1 POP JUMPDEST SWAP1 JUMP JUMPDEST PUSH1 0x0 DUP2 SWAP1 POP SWAP2 SWAP1 POP JUMP JUMPDEST PUSH1 0xA7 DUP2 PUSH1 0x96 JUMP JUMPDEST DUP3 MSTORE POP POP JUMP JUMPDEST PUSH1 0x0 PUSH1 0x20 DUP3 ADD SWAP1 POP PUSH1 0xC0 PUSH1 0x0 DUP4 ADD DUP5 PUSH1 0xA0 JUMP JUMPDEST SWAP3 SWAP2 POP POP JUMP INVALID LOG2 PUSH5 0x6970667358 0x22 SLT KECCAK256 0xC3 PUSH27 0x860C065230ACBDEC167F62126EC63650009C6325CD42C074145F56 0xCE 0xC 0xAE PUSH5 0x736F6C6343 STOP ADDMOD SLT STOP CALLER "
				},
				"gasEstimates": {
					"creation": {
						"codeDepositCost": "50400",
						"executionCost": "66417",
						"totalCost": "116817"
					},
					"external": {
						"LOT()": "19340"
					}
				},
				"methodIdentifiers": {
					"LOT()": "d3284cda"
				}
			},
			"storageLayout": {
				"storage": [
					{
						"astId": 4,
						"contract": "Practicals/LargestofThree.sol:LargestofThree",
						"label": "num1",
						"offset": 0,
						"slot": "0",
						"type": "t_int256"
					},
					{
						"astId": 7,
						"contract": "Practicals/LargestofThree.sol:LargestofThree",
						"label": "num2",
						"offset": 0,
						"slot": "1",
						"type": "t_int256"
					},
					{
						"astId": 10,
						"contract": "Practicals/LargestofThree.sol:LargestofThree",
						"label": "num3",
						"offset": 0,
						"slot": "2",
						"type": "t_int256"
					}
				],
				"types": {
					"t_int256": {
						"encoding": "inplace",
						"label": "int256",
						"numberOfBytes": "32"
					}
				}
			},
			"userdoc": {
				"kind": "user",
				"methods": {},
				"version": 1
			}
		}
	}
}